{
  "_format": "hh-sol-artifact-1",
  "contractName": "flowLogic",
  "sourceName": "contracts/flowLogic.sol",
  "abi": [
    {
      "inputs": [
        {
          "internalType": "contract ISuperfluid",
          "name": "host",
          "type": "address"
        },
        {
          "internalType": "contract IConstantFlowAgreementV1",
          "name": "cfa",
          "type": "address"
        },
        {
          "internalType": "contract ISuperToken",
          "name": "acceptedToken",
          "type": "address"
        }
      ],
      "stateMutability": "nonpayable",
      "type": "constructor"
    },
    {
      "inputs": [
        {
          "internalType": "contract ISuperToken",
          "name": "",
          "type": "address"
        },
        {
          "internalType": "address",
          "name": "",
          "type": "address"
        },
        {
          "internalType": "bytes32",
          "name": "",
          "type": "bytes32"
        },
        {
          "internalType": "bytes",
          "name": "",
          "type": "bytes"
        },
        {
          "internalType": "bytes",
          "name": "",
          "type": "bytes"
        },
        {
          "internalType": "bytes",
          "name": "",
          "type": "bytes"
        }
      ],
      "name": "afterAgreementCreated",
      "outputs": [
        {
          "internalType": "bytes",
          "name": "",
          "type": "bytes"
        }
      ],
      "stateMutability": "nonpayable",
      "type": "function"
    },
    {
      "inputs": [
        {
          "internalType": "contract ISuperToken",
          "name": "",
          "type": "address"
        },
        {
          "internalType": "address",
          "name": "",
          "type": "address"
        },
        {
          "internalType": "bytes32",
          "name": "",
          "type": "bytes32"
        },
        {
          "internalType": "bytes",
          "name": "",
          "type": "bytes"
        },
        {
          "internalType": "bytes",
          "name": "",
          "type": "bytes"
        },
        {
          "internalType": "bytes",
          "name": "",
          "type": "bytes"
        }
      ],
      "name": "afterAgreementTerminated",
      "outputs": [
        {
          "internalType": "bytes",
          "name": "",
          "type": "bytes"
        }
      ],
      "stateMutability": "nonpayable",
      "type": "function"
    },
    {
      "inputs": [
        {
          "internalType": "contract ISuperToken",
          "name": "",
          "type": "address"
        },
        {
          "internalType": "address",
          "name": "",
          "type": "address"
        },
        {
          "internalType": "bytes32",
          "name": "",
          "type": "bytes32"
        },
        {
          "internalType": "bytes",
          "name": "",
          "type": "bytes"
        },
        {
          "internalType": "bytes",
          "name": "",
          "type": "bytes"
        },
        {
          "internalType": "bytes",
          "name": "",
          "type": "bytes"
        }
      ],
      "name": "afterAgreementUpdated",
      "outputs": [
        {
          "internalType": "bytes",
          "name": "",
          "type": "bytes"
        }
      ],
      "stateMutability": "nonpayable",
      "type": "function"
    },
    {
      "inputs": [
        {
          "internalType": "contract ISuperToken",
          "name": "",
          "type": "address"
        },
        {
          "internalType": "address",
          "name": "",
          "type": "address"
        },
        {
          "internalType": "bytes32",
          "name": "",
          "type": "bytes32"
        },
        {
          "internalType": "bytes",
          "name": "",
          "type": "bytes"
        },
        {
          "internalType": "bytes",
          "name": "",
          "type": "bytes"
        }
      ],
      "name": "beforeAgreementCreated",
      "outputs": [
        {
          "internalType": "bytes",
          "name": "",
          "type": "bytes"
        }
      ],
      "stateMutability": "view",
      "type": "function"
    },
    {
      "inputs": [
        {
          "internalType": "contract ISuperToken",
          "name": "",
          "type": "address"
        },
        {
          "internalType": "address",
          "name": "",
          "type": "address"
        },
        {
          "internalType": "bytes32",
          "name": "",
          "type": "bytes32"
        },
        {
          "internalType": "bytes",
          "name": "",
          "type": "bytes"
        },
        {
          "internalType": "bytes",
          "name": "",
          "type": "bytes"
        }
      ],
      "name": "beforeAgreementTerminated",
      "outputs": [
        {
          "internalType": "bytes",
          "name": "",
          "type": "bytes"
        }
      ],
      "stateMutability": "view",
      "type": "function"
    },
    {
      "inputs": [
        {
          "internalType": "contract ISuperToken",
          "name": "",
          "type": "address"
        },
        {
          "internalType": "address",
          "name": "",
          "type": "address"
        },
        {
          "internalType": "bytes32",
          "name": "",
          "type": "bytes32"
        },
        {
          "internalType": "bytes",
          "name": "",
          "type": "bytes"
        },
        {
          "internalType": "bytes",
          "name": "",
          "type": "bytes"
        }
      ],
      "name": "beforeAgreementUpdated",
      "outputs": [
        {
          "internalType": "bytes",
          "name": "",
          "type": "bytes"
        }
      ],
      "stateMutability": "view",
      "type": "function"
    }
  ],
  "bytecode": "0x60806040523480156200001157600080fd5b5060405162000d5c38038062000d5c8339818101604052810190620000379190620001f2565b826000806101000a81548173ffffffffffffffffffffffffffffffffffffffff021916908373ffffffffffffffffffffffffffffffffffffffff16021790555081600160006101000a81548173ffffffffffffffffffffffffffffffffffffffff021916908373ffffffffffffffffffffffffffffffffffffffff16021790555080600260006101000a81548173ffffffffffffffffffffffffffffffffffffffff021916908373ffffffffffffffffffffffffffffffffffffffff16021790555060006410000000006404000000006401000000006001171717905060008054906101000a900473ffffffffffffffffffffffffffffffffffffffff1673ffffffffffffffffffffffffffffffffffffffff1663ad3915c8826040518263ffffffff1660e01b81526004016200016f919062000259565b600060405180830381600087803b1580156200018a57600080fd5b505af11580156200019f573d6000803e3d6000fd5b50505050505050506200033e565b600081519050620001be81620002f0565b92915050565b600081519050620001d5816200030a565b92915050565b600081519050620001ec8162000324565b92915050565b6000806000606084860312156200020857600080fd5b60006200021886828701620001db565b93505060206200022b86828701620001ad565b92505060406200023e86828701620001c4565b9150509250925092565b6200025381620002e6565b82525050565b600060208201905062000270600083018462000248565b92915050565b60006200028382620002c6565b9050919050565b6000620002978262000276565b9050919050565b6000620002ab8262000276565b9050919050565b6000620002bf8262000276565b9050919050565b600073ffffffffffffffffffffffffffffffffffffffff82169050919050565b6000819050919050565b620002fb816200028a565b81146200030757600080fd5b50565b62000315816200029e565b81146200032157600080fd5b50565b6200032f81620002b2565b81146200033b57600080fd5b50565b610a0e806200034e6000396000f3fe608060405234801561001057600080fd5b50600436106100625760003560e01c8063230dbd291461006757806330d9c9151461009757806353c11f99146100c75780635f9e7d77146100f7578063884d1f4014610127578063d86ed3e514610157575b600080fd5b610081600480360381019061007c919061042e565b610187565b60405161008e9190610618565b60405180910390f35b6100b160048036038101906100ac919061037e565b6101c4565b6040516100be9190610618565b60405180910390f35b6100e160048036038101906100dc919061042e565b610201565b6040516100ee9190610618565b60405180910390f35b610111600480360381019061010c919061037e565b61023e565b60405161011e9190610618565b60405180910390f35b610141600480360381019061013c919061037e565b61027b565b60405161014e9190610618565b60405180910390f35b610171600480360381019061016c919061042e565b6102b8565b60405161017e9190610618565b60405180910390f35b60606040517f08c379a00000000000000000000000000000000000000000000000000000000081526004016101bb9061069a565b60405180910390fd5b60606040517f08c379a00000000000000000000000000000000000000000000000000000000081526004016101f8906106ba565b60405180910390fd5b60606040517f08c379a0000000000000000000000000000000000000000000000000000000008152600401610235906106da565b60405180910390fd5b60606040517f08c379a00000000000000000000000000000000000000000000000000000000081526004016102729061063a565b60405180910390fd5b60606040517f08c379a00000000000000000000000000000000000000000000000000000000081526004016102af9061065a565b60405180910390fd5b60606040517f08c379a00000000000000000000000000000000000000000000000000000000081526004016102ec9061067a565b60405180910390fd5b60008135905061030481610993565b92915050565b600081359050610319816109aa565b92915050565b60008083601f84011261033157600080fd5b8235905067ffffffffffffffff81111561034a57600080fd5b60208301915083600182028301111561036257600080fd5b9250929050565b600081359050610378816109c1565b92915050565b600080600080600080600060a0888a03121561039957600080fd5b60006103a78a828b01610369565b97505060206103b88a828b016102f5565b96505060406103c98a828b0161030a565b955050606088013567ffffffffffffffff8111156103e657600080fd5b6103f28a828b0161031f565b9450945050608088013567ffffffffffffffff81111561041157600080fd5b61041d8a828b0161031f565b925092505092959891949750929550565b600080600080600080600080600060c08a8c03121561044c57600080fd5b600061045a8c828d01610369565b995050602061046b8c828d016102f5565b985050604061047c8c828d0161030a565b97505060608a013567ffffffffffffffff81111561049957600080fd5b6104a58c828d0161031f565b965096505060808a013567ffffffffffffffff8111156104c457600080fd5b6104d08c828d0161031f565b945094505060a08a013567ffffffffffffffff8111156104ef57600080fd5b6104fb8c828d0161031f565b92509250509295985092959850929598565b6000610518826106fa565b6105228185610705565b9350610532818560208601610775565b61053b816107a8565b840191505092915050565b6000610553603383610716565b915061055e826107b9565b604082019050919050565b6000610576602f83610716565b915061058182610808565b604082019050919050565b6000610599602e83610716565b91506105a482610857565b604082019050919050565b60006105bc602e83610716565b91506105c7826108a6565b604082019050919050565b60006105df602f83610716565b91506105ea826108f5565b604082019050919050565b6000610602603183610716565b915061060d82610944565b604082019050919050565b60006020820190508181036000830152610632818461050d565b905092915050565b6000602082019050818103600083015261065381610546565b9050919050565b6000602082019050818103600083015261067381610569565b9050919050565b600060208201905081810360008301526106938161058c565b9050919050565b600060208201905081810360008301526106b3816105af565b9050919050565b600060208201905081810360008301526106d3816105d2565b9050919050565b600060208201905081810360008301526106f3816105f5565b9050919050565b600081519050919050565b600082825260208201905092915050565b600082825260208201905092915050565b600061073282610755565b9050919050565b6000819050919050565b600061074e82610727565b9050919050565b600073ffffffffffffffffffffffffffffffffffffffff82169050919050565b60005b83811015610793578082015181840152602081019050610778565b838111156107a2576000848401525b50505050565b6000601f19601f8301169050919050565b7f556e737570706f727465642063616c6c6261636b202d20204265666f7265204160008201527f677265656d656e74205465726d696e6174656400000000000000000000000000602082015250565b7f556e737570706f727465642063616c6c6261636b202d204265666f726520416760008201527f7265656d656e7420757064617465640000000000000000000000000000000000602082015250565b7f556e737570706f727465642063616c6c6261636b202d2041667465722041677260008201527f65656d656e742043726561746564000000000000000000000000000000000000602082015250565b7f556e737570706f727465642063616c6c6261636b202d2041667465722041677260008201527f65656d656e742055706461746564000000000000000000000000000000000000602082015250565b7f556e737570706f727465642063616c6c6261636b202d204265666f726520416760008201527f7265656d656e7420437265617465640000000000000000000000000000000000602082015250565b7f556e737570706f727465642063616c6c6261636b202d2041667465722041677260008201527f65656d656e74205465726d696e61746564000000000000000000000000000000602082015250565b61099c81610727565b81146109a757600080fd5b50565b6109b381610739565b81146109be57600080fd5b50565b6109ca81610743565b81146109d557600080fd5b5056fea2646970667358221220f1114dc250c6fb9ce1f7784f6785b26fda692a3ac6f0ef27844406e588964e3e64736f6c63430008040033",
  "linkReferences": {},
  "deployedLinkReferences": {}
}