{
  "_format": "hh-sol-artifact-1",
  "contractName": "cfProposals",
  "sourceName": "contracts/cfProposals.sol",
  "abi": [
    {
      "inputs": [
        {
          "internalType": "contract ISuperfluid",
          "name": "host",
          "type": "address"
        },
        {
          "internalType": "contract IConstantFlowAgreementV1",
          "name": "cfa",
          "type": "address"
        },
        {
          "internalType": "contract ISuperToken",
          "name": "acceptedToken",
          "type": "address"
        }
      ],
      "stateMutability": "nonpayable",
      "type": "constructor"
    },
    {
      "inputs": [
        {
          "internalType": "string",
          "name": "title",
          "type": "string"
        },
        {
          "internalType": "string",
          "name": "description",
          "type": "string"
        },
        {
          "internalType": "uint256",
          "name": "goal",
          "type": "uint256"
        },
        {
          "internalType": "uint256",
          "name": "maturityDate",
          "type": "uint256"
        },
        {
          "internalType": "uint256",
          "name": "dueDate",
          "type": "uint256"
        }
      ],
      "name": "addProposal",
      "outputs": [],
      "stateMutability": "nonpayable",
      "type": "function"
    },
    {
      "inputs": [
        {
          "internalType": "contract ISuperToken",
          "name": "",
          "type": "address"
        },
        {
          "internalType": "address",
          "name": "",
          "type": "address"
        },
        {
          "internalType": "bytes32",
          "name": "",
          "type": "bytes32"
        },
        {
          "internalType": "bytes",
          "name": "",
          "type": "bytes"
        },
        {
          "internalType": "bytes",
          "name": "",
          "type": "bytes"
        },
        {
          "internalType": "bytes",
          "name": "",
          "type": "bytes"
        }
      ],
      "name": "afterAgreementCreated",
      "outputs": [
        {
          "internalType": "bytes",
          "name": "",
          "type": "bytes"
        }
      ],
      "stateMutability": "nonpayable",
      "type": "function"
    },
    {
      "inputs": [
        {
          "internalType": "contract ISuperToken",
          "name": "",
          "type": "address"
        },
        {
          "internalType": "address",
          "name": "",
          "type": "address"
        },
        {
          "internalType": "bytes32",
          "name": "",
          "type": "bytes32"
        },
        {
          "internalType": "bytes",
          "name": "",
          "type": "bytes"
        },
        {
          "internalType": "bytes",
          "name": "",
          "type": "bytes"
        },
        {
          "internalType": "bytes",
          "name": "",
          "type": "bytes"
        }
      ],
      "name": "afterAgreementTerminated",
      "outputs": [
        {
          "internalType": "bytes",
          "name": "",
          "type": "bytes"
        }
      ],
      "stateMutability": "nonpayable",
      "type": "function"
    },
    {
      "inputs": [
        {
          "internalType": "contract ISuperToken",
          "name": "",
          "type": "address"
        },
        {
          "internalType": "address",
          "name": "",
          "type": "address"
        },
        {
          "internalType": "bytes32",
          "name": "",
          "type": "bytes32"
        },
        {
          "internalType": "bytes",
          "name": "",
          "type": "bytes"
        },
        {
          "internalType": "bytes",
          "name": "",
          "type": "bytes"
        },
        {
          "internalType": "bytes",
          "name": "",
          "type": "bytes"
        }
      ],
      "name": "afterAgreementUpdated",
      "outputs": [
        {
          "internalType": "bytes",
          "name": "",
          "type": "bytes"
        }
      ],
      "stateMutability": "nonpayable",
      "type": "function"
    },
    {
      "inputs": [
        {
          "internalType": "uint256",
          "name": "index",
          "type": "uint256"
        },
        {
          "internalType": "uint256",
          "name": "amount",
          "type": "uint256"
        },
        {
          "internalType": "address",
          "name": "receiver",
          "type": "address"
        }
      ],
      "name": "backProposal",
      "outputs": [],
      "stateMutability": "payable",
      "type": "function"
    },
    {
      "inputs": [
        {
          "internalType": "contract ISuperToken",
          "name": "",
          "type": "address"
        },
        {
          "internalType": "address",
          "name": "",
          "type": "address"
        },
        {
          "internalType": "bytes32",
          "name": "",
          "type": "bytes32"
        },
        {
          "internalType": "bytes",
          "name": "",
          "type": "bytes"
        },
        {
          "internalType": "bytes",
          "name": "",
          "type": "bytes"
        }
      ],
      "name": "beforeAgreementCreated",
      "outputs": [
        {
          "internalType": "bytes",
          "name": "",
          "type": "bytes"
        }
      ],
      "stateMutability": "view",
      "type": "function"
    },
    {
      "inputs": [
        {
          "internalType": "contract ISuperToken",
          "name": "",
          "type": "address"
        },
        {
          "internalType": "address",
          "name": "",
          "type": "address"
        },
        {
          "internalType": "bytes32",
          "name": "",
          "type": "bytes32"
        },
        {
          "internalType": "bytes",
          "name": "",
          "type": "bytes"
        },
        {
          "internalType": "bytes",
          "name": "",
          "type": "bytes"
        }
      ],
      "name": "beforeAgreementTerminated",
      "outputs": [
        {
          "internalType": "bytes",
          "name": "",
          "type": "bytes"
        }
      ],
      "stateMutability": "view",
      "type": "function"
    },
    {
      "inputs": [
        {
          "internalType": "contract ISuperToken",
          "name": "",
          "type": "address"
        },
        {
          "internalType": "address",
          "name": "",
          "type": "address"
        },
        {
          "internalType": "bytes32",
          "name": "",
          "type": "bytes32"
        },
        {
          "internalType": "bytes",
          "name": "",
          "type": "bytes"
        },
        {
          "internalType": "bytes",
          "name": "",
          "type": "bytes"
        }
      ],
      "name": "beforeAgreementUpdated",
      "outputs": [
        {
          "internalType": "bytes",
          "name": "",
          "type": "bytes"
        }
      ],
      "stateMutability": "view",
      "type": "function"
    },
    {
      "inputs": [
        {
          "internalType": "bytes",
          "name": "",
          "type": "bytes"
        }
      ],
      "name": "checkUpkeep",
      "outputs": [
        {
          "internalType": "bool",
          "name": "upkeepNeeded",
          "type": "bool"
        },
        {
          "internalType": "bytes",
          "name": "",
          "type": "bytes"
        }
      ],
      "stateMutability": "view",
      "type": "function"
    },
    {
      "inputs": [
        {
          "internalType": "uint256",
          "name": "index",
          "type": "uint256"
        }
      ],
      "name": "checkVotes",
      "outputs": [
        {
          "internalType": "uint256[]",
          "name": "",
          "type": "uint256[]"
        }
      ],
      "stateMutability": "view",
      "type": "function"
    },
    {
      "inputs": [],
      "name": "fDAI",
      "outputs": [
        {
          "internalType": "address",
          "name": "",
          "type": "address"
        }
      ],
      "stateMutability": "view",
      "type": "function"
    },
    {
      "inputs": [],
      "name": "fDAIx",
      "outputs": [
        {
          "internalType": "address",
          "name": "",
          "type": "address"
        }
      ],
      "stateMutability": "view",
      "type": "function"
    },
    {
      "inputs": [
        {
          "internalType": "uint256",
          "name": "index",
          "type": "uint256"
        }
      ],
      "name": "forceCheckVote",
      "outputs": [],
      "stateMutability": "nonpayable",
      "type": "function"
    },
    {
      "inputs": [],
      "name": "getActivePropDetails",
      "outputs": [
        {
          "components": [
            {
              "internalType": "uint256",
              "name": "proposalID",
              "type": "uint256"
            },
            {
              "internalType": "address",
              "name": "proposalOwner",
              "type": "address"
            },
            {
              "internalType": "string",
              "name": "title",
              "type": "string"
            },
            {
              "internalType": "string",
              "name": "description",
              "type": "string"
            },
            {
              "internalType": "uint256",
              "name": "fundingGoal",
              "type": "uint256"
            },
            {
              "internalType": "uint256",
              "name": "fundsRaised",
              "type": "uint256"
            },
            {
              "internalType": "uint256",
              "name": "dateCreated",
              "type": "uint256"
            },
            {
              "internalType": "uint256",
              "name": "dueDate",
              "type": "uint256"
            },
            {
              "internalType": "uint256",
              "name": "maturityDate",
              "type": "uint256"
            },
            {
              "internalType": "uint256",
              "name": "dateCompleted",
              "type": "uint256"
            },
            {
              "internalType": "bool",
              "name": "isActive",
              "type": "bool"
            },
            {
              "internalType": "bool",
              "name": "isFlowing",
              "type": "bool"
            },
            {
              "internalType": "bool",
              "name": "isVoting",
              "type": "bool"
            },
            {
              "internalType": "uint256",
              "name": "voteStarted",
              "type": "uint256"
            },
            {
              "internalType": "uint256",
              "name": "voteDuedate",
              "type": "uint256"
            }
          ],
          "internalType": "struct cfProposals.proposal[]",
          "name": "",
          "type": "tuple[]"
        }
      ],
      "stateMutability": "view",
      "type": "function"
    },
    {
      "inputs": [],
      "name": "getActiveProposals",
      "outputs": [
        {
          "internalType": "uint256[]",
          "name": "",
          "type": "uint256[]"
        }
      ],
      "stateMutability": "view",
      "type": "function"
    },
    {
      "inputs": [
        {
          "internalType": "uint256",
          "name": "index",
          "type": "uint256"
        }
      ],
      "name": "getProposal",
      "outputs": [
        {
          "components": [
            {
              "internalType": "uint256",
              "name": "proposalID",
              "type": "uint256"
            },
            {
              "internalType": "address",
              "name": "proposalOwner",
              "type": "address"
            },
            {
              "internalType": "string",
              "name": "title",
              "type": "string"
            },
            {
              "internalType": "string",
              "name": "description",
              "type": "string"
            },
            {
              "internalType": "uint256",
              "name": "fundingGoal",
              "type": "uint256"
            },
            {
              "internalType": "uint256",
              "name": "fundsRaised",
              "type": "uint256"
            },
            {
              "internalType": "uint256",
              "name": "dateCreated",
              "type": "uint256"
            },
            {
              "internalType": "uint256",
              "name": "dueDate",
              "type": "uint256"
            },
            {
              "internalType": "uint256",
              "name": "maturityDate",
              "type": "uint256"
            },
            {
              "internalType": "uint256",
              "name": "dateCompleted",
              "type": "uint256"
            },
            {
              "internalType": "bool",
              "name": "isActive",
              "type": "bool"
            },
            {
              "internalType": "bool",
              "name": "isFlowing",
              "type": "bool"
            },
            {
              "internalType": "bool",
              "name": "isVoting",
              "type": "bool"
            },
            {
              "internalType": "uint256",
              "name": "voteStarted",
              "type": "uint256"
            },
            {
              "internalType": "uint256",
              "name": "voteDuedate",
              "type": "uint256"
            }
          ],
          "internalType": "struct cfProposals.proposal",
          "name": "",
          "type": "tuple"
        }
      ],
      "stateMutability": "view",
      "type": "function"
    },
    {
      "inputs": [
        {
          "internalType": "uint256",
          "name": "index",
          "type": "uint256"
        }
      ],
      "name": "initiateVote",
      "outputs": [],
      "stateMutability": "nonpayable",
      "type": "function"
    },
    {
      "inputs": [],
      "name": "isApproved",
      "outputs": [
        {
          "internalType": "bool",
          "name": "",
          "type": "bool"
        }
      ],
      "stateMutability": "view",
      "type": "function"
    },
    {
      "inputs": [
        {
          "internalType": "bytes",
          "name": "",
          "type": "bytes"
        }
      ],
      "name": "performUpkeep",
      "outputs": [],
      "stateMutability": "nonpayable",
      "type": "function"
    },
    {
      "inputs": [],
      "name": "setApproved",
      "outputs": [],
      "stateMutability": "nonpayable",
      "type": "function"
    },
    {
      "inputs": [
        {
          "internalType": "uint256",
          "name": "index",
          "type": "uint256"
        }
      ],
      "name": "toggleActive",
      "outputs": [],
      "stateMutability": "nonpayable",
      "type": "function"
    },
    {
      "inputs": [
        {
          "internalType": "uint256",
          "name": "index",
          "type": "uint256"
        },
        {
          "internalType": "uint256",
          "name": "answer",
          "type": "uint256"
        }
      ],
      "name": "vote",
      "outputs": [],
      "stateMutability": "nonpayable",
      "type": "function"
    }
  ],
  "bytecode": "0x60806040523480156200001157600080fd5b506040516200565738038062005657833981810160405281019062000037919062000364565b828282826000806101000a81548173ffffffffffffffffffffffffffffffffffffffff021916908373ffffffffffffffffffffffffffffffffffffffff16021790555081600160006101000a81548173ffffffffffffffffffffffffffffffffffffffff021916908373ffffffffffffffffffffffffffffffffffffffff16021790555080600260006101000a81548173ffffffffffffffffffffffffffffffffffffffff021916908373ffffffffffffffffffffffffffffffffffffffff16021790555060006410000000006404000000006401000000006001171717905060008054906101000a900473ffffffffffffffffffffffffffffffffffffffff1673ffffffffffffffffffffffffffffffffffffffff1663ad3915c8826040518263ffffffff1660e01b815260040162000172919062000430565b600060405180830381600087803b1580156200018d57600080fd5b505af1158015620001a2573d6000803e3d6000fd5b5050505050505050620001f56040518060400160405280601081526020017f497427732e2e2e2e414c495645212121000000000000000000000000000000008152506200025360201b62002ef31760201c565b735d8b4c2554aeb7e86f387b4d6c00ac33499ed01f600360006101000a81548173ffffffffffffffffffffffffffffffffffffffff021916908373ffffffffffffffffffffffffffffffffffffffff16021790555050505062000578565b620002f3816040516024016200026a91906200040c565b6040516020818303038152906040527f41304fac000000000000000000000000000000000000000000000000000000007bffffffffffffffffffffffffffffffffffffffffffffffffffffffff19166020820180517bffffffffffffffffffffffffffffffffffffffffffffffffffffffff8381831617835250505050620002f660201b60201c565b50565b60008151905060006a636f6e736f6c652e6c6f679050602083016000808483855afa5050505050565b60008151905062000330816200052a565b92915050565b600081519050620003478162000544565b92915050565b6000815190506200035e816200055e565b92915050565b6000806000606084860312156200037a57600080fd5b60006200038a868287016200034d565b93505060206200039d868287016200031f565b9250506040620003b08682870162000336565b9150509250925092565b6000620003c7826200044d565b620003d3818562000458565b9350620003e5818560208601620004e3565b620003f08162000519565b840191505092915050565b6200040681620004d9565b82525050565b60006020820190508181036000830152620004288184620003ba565b905092915050565b6000602082019050620004476000830184620003fb565b92915050565b600081519050919050565b600082825260208201905092915050565b60006200047682620004b9565b9050919050565b60006200048a8262000469565b9050919050565b60006200049e8262000469565b9050919050565b6000620004b28262000469565b9050919050565b600073ffffffffffffffffffffffffffffffffffffffff82169050919050565b6000819050919050565b60005b8381101562000503578082015181840152602081019050620004e6565b8381111562000513576000848401525b50505050565b6000601f19601f8301169050919050565b62000535816200047d565b81146200054157600080fd5b50565b6200054f8162000491565b81146200055b57600080fd5b50565b6200056981620004a5565b81146200057557600080fd5b50565b6150cf80620005886000396000f3fe6080604052600436106101355760003560e01c80635584c4f9116100ab578063b384abef1161006f578063b384abef1461043e578063c7f758a814610467578063cbd8e12f146104a4578063d86ed3e5146104cd578063dc0fd3a61461050a578063e59e5f681461053557610135565b80635584c4f91461031e5780635f9e7d77146103495780636e04ff0d14610386578063884d1f40146103c45780638c4cde811461040157610135565b806326fd6d05116100fd57806326fd6d05146101fe57806328f371aa146102275780632be955f91461025257806330d9c9151461027b5780634585e33b146102b857806353c11f99146102e157610135565b80630ef799f41461013a578063105d36451461016357806312bb025f1461017a578063160b5684146101a5578063230dbd29146101c1575b600080fd5b34801561014657600080fd5b50610161600480360381019061015c9190613ae5565b610560565b005b34801561016f57600080fd5b50610178610846565b005b34801561018657600080fd5b5061018f6108a0565b60405161019c919061428e565b60405180910390f35b6101bf60048036038101906101ba9190613b4a565b6108c6565b005b3480156101cd57600080fd5b506101e860048036038101906101e3919061395f565b610cd2565b6040516101f5919061436f565b60405180910390f35b34801561020a57600080fd5b5061022560048036038101906102209190613a3e565b610d0f565b005b34801561023357600080fd5b5061023c610f2f565b6040516102499190614324565b60405180910390f35b34801561025e57600080fd5b5061027960048036038101906102749190613ae5565b610f83565b005b34801561028757600080fd5b506102a2600480360381019061029d91906138af565b611508565b6040516102af919061436f565b60405180910390f35b3480156102c457600080fd5b506102df60048036038101906102da9190613829565b611545565b005b3480156102ed57600080fd5b506103086004803603810190610303919061395f565b611603565b604051610315919061436f565b60405180910390f35b34801561032a57600080fd5b50610333611640565b6040516103409190614302565b60405180910390f35b34801561035557600080fd5b50610370600480360381019061036b91906138af565b611ae7565b60405161037d919061436f565b60405180910390f35b34801561039257600080fd5b506103ad60048036038101906103a89190613829565b611b24565b6040516103bb92919061433f565b60405180910390f35b3480156103d057600080fd5b506103eb60048036038101906103e691906138af565b611c36565b6040516103f8919061436f565b60405180910390f35b34801561040d57600080fd5b5061042860048036038101906104239190613ae5565b611c73565b6040516104359190614302565b60405180910390f35b34801561044a57600080fd5b5061046560048036038101906104609190613b0e565b611d41565b005b34801561047357600080fd5b5061048e60048036038101906104899190613ae5565b612014565b60405161049b919061469e565b60405180910390f35b3480156104b057600080fd5b506104cb60048036038101906104c69190613ae5565b61229c565b005b3480156104d957600080fd5b506104f460048036038101906104ef919061395f565b612a2e565b604051610501919061436f565b60405180910390f35b34801561051657600080fd5b5061051f612a6b565b60405161052c91906142e0565b60405180910390f35b34801561054157600080fd5b5061054a612ecd565b604051610557919061428e565b60405180910390f35b60006009600083815260200190815260200160002060003373ffffffffffffffffffffffffffffffffffffffff1673ffffffffffffffffffffffffffffffffffffffff16815260200190815260200160002054116105f3576040517f08c379a00000000000000000000000000000000000000000000000000000000081526004016105ea9061457e565b60405180910390fd5b6006818154811061062d577f4e487b7100000000000000000000000000000000000000000000000000000000600052603260045260246000fd5b90600052602060002090600d0201600a0160009054906101000a900460ff161561068c576040517f08c379a00000000000000000000000000000000000000000000000000000000081526004016106839061455e565b60405180910390fd5b600681815481106106c6577f4e487b7100000000000000000000000000000000000000000000000000000000600052603260045260246000fd5b90600052602060002090600d0201600a0160029054906101000a900460ff1615610725576040517f08c379a000000000000000000000000000000000000000000000000000000000815260040161071c906144be565b60405180910390fd5b600160068281548110610761577f4e487b7100000000000000000000000000000000000000000000000000000000600052603260045260246000fd5b90600052602060002090600d0201600a0160026101000a81548160ff0219169083151502179055506000429050600062093a808261079f919061481d565b905081600684815481106107dc577f4e487b7100000000000000000000000000000000000000000000000000000000600052603260045260246000fd5b90600052602060002090600d0201600b0181905550806006848154811061082c577f4e487b7100000000000000000000000000000000000000000000000000000000600052603260045260246000fd5b90600052602060002090600d0201600c0181905550505050565b6001600c60003373ffffffffffffffffffffffffffffffffffffffff1673ffffffffffffffffffffffffffffffffffffffff16815260200190815260200160002060006101000a81548160ff021916908315150217905550565b600760009054906101000a900473ffffffffffffffffffffffffffffffffffffffff1681565b60008211610909576040517f08c379a0000000000000000000000000000000000000000000000000000000008152600401610900906145be565b60405180910390fd5b60068381548110610943577f4e487b7100000000000000000000000000000000000000000000000000000000600052603260045260246000fd5b90600052602060002090600d0201600a0160009054906101000a900460ff166109a1576040517f08c379a00000000000000000000000000000000000000000000000000000000081526004016109989061451e565b60405180910390fd5b600360009054906101000a900473ffffffffffffffffffffffffffffffffffffffff1673ffffffffffffffffffffffffffffffffffffffff166323b872dd3383856040518463ffffffff1660e01b8152600401610a00939291906142a9565b602060405180830381600087803b158015610a1a57600080fd5b505af1158015610a2e573d6000803e3d6000fd5b505050506040513d601f19601f82011682018060405250810190610a529190613800565b508160068481548110610a8e577f4e487b7100000000000000000000000000000000000000000000000000000000600052603260045260246000fd5b90600052602060002090600d020160050154610aaa919061481d565b60068481548110610ae4577f4e487b7100000000000000000000000000000000000000000000000000000000600052603260045260246000fd5b90600052602060002090600d02016005018190555060006009600085815260200190815260200160002060003373ffffffffffffffffffffffffffffffffffffffff1673ffffffffffffffffffffffffffffffffffffffff1681526020019081526020016000205411610c1d57600b6000848152602001908152602001600020339080600181540180825580915050600190039060005260206000200160009091909190916101000a81548173ffffffffffffffffffffffffffffffffffffffff021916908373ffffffffffffffffffffffffffffffffffffffff160217905550610be0600a6000858152602001908152602001600020612f8c565b610c1c6040518060600160405280602b815260200161506f602b9139610c17600a6000878152602001908152602001600020612fa2565b612fb0565b5b816009600085815260200190815260200160002060003373ffffffffffffffffffffffffffffffffffffffff1673ffffffffffffffffffffffffffffffffffffffff16815260200190815260200160002054610c79919061481d565b6009600085815260200190815260200160002060003373ffffffffffffffffffffffffffffffffffffffff1673ffffffffffffffffffffffffffffffffffffffff16815260200190815260200160002081905550505050565b60606040517f08c379a0000000000000000000000000000000000000000000000000000000008152600401610d069061461e565b60405180910390fd5b6000610d1b6004612fa2565b90506006604051806101e001604052808381526020013373ffffffffffffffffffffffffffffffffffffffff168152602001888152602001878152602001868152602001600081526020014281526020018481526020018581526020016000815260200160011515815260200160001515815260200160001515815260200160008152602001600081525090806001815401808255809150506001900390600052602060002090600d02016000909190919091506000820151816000015560208201518160010160006101000a81548173ffffffffffffffffffffffffffffffffffffffff021916908373ffffffffffffffffffffffffffffffffffffffff1602179055506040820151816002019080519060200190610e3c929190613548565b506060820151816003019080519060200190610e59929190613548565b506080820151816004015560a0820151816005015560c0820151816006015560e082015181600701556101008201518160080155610120820151816009015561014082015181600a0160006101000a81548160ff02191690831515021790555061016082015181600a0160016101000a81548160ff02191690831515021790555061018082015181600a0160026101000a81548160ff0219169083151502179055506101a082015181600b01556101c082015181600c01555050610f1d6004612f8c565b610f276005612f8c565b505050505050565b6000600c60003373ffffffffffffffffffffffffffffffffffffffff1673ffffffffffffffffffffffffffffffffffffffff16815260200190815260200160002060009054906101000a900460ff16905090565b600060068281548110610fbf577f4e487b7100000000000000000000000000000000000000000000000000000000600052603260045260246000fd5b90600052602060002090600d0201604051806101e0016040529081600082015481526020016001820160009054906101000a900473ffffffffffffffffffffffffffffffffffffffff1673ffffffffffffffffffffffffffffffffffffffff1673ffffffffffffffffffffffffffffffffffffffff16815260200160028201805461104990614ac2565b80601f016020809104026020016040519081016040528092919081815260200182805461107590614ac2565b80156110c25780601f10611097576101008083540402835291602001916110c2565b820191906000526020600020905b8154815290600101906020018083116110a557829003601f168201915b505050505081526020016003820180546110db90614ac2565b80601f016020809104026020016040519081016040528092919081815260200182805461110790614ac2565b80156111545780601f1061112957610100808354040283529160200191611154565b820191906000526020600020905b81548152906001019060200180831161113757829003601f168201915b50505050508152602001600482015481526020016005820154815260200160068201548152602001600782015481526020016008820154815260200160098201548152602001600a820160009054906101000a900460ff16151515158152602001600a820160019054906101000a900460ff16151515158152602001600a820160029054906101000a900460ff16151515158152602001600b8201548152602001600c820154815250509050806101800151801561121457508061016001515b15611504576000611236600e6000858152602001908152602001600020612fa2565b90506000611255600d6000868152602001908152602001600020612fa2565b9050818111156113ac57611269600561304c565b61127683602001516130a8565b6000600685815481106112b2577f4e487b7100000000000000000000000000000000000000000000000000000000600052603260045260246000fd5b90600052602060002090600d0201600a0160016101000a81548160ff021916908315150217905550600060068581548110611316577f4e487b7100000000000000000000000000000000000000000000000000000000600052603260045260246000fd5b90600052602060002090600d0201600a0160026101000a81548160ff0219169083151502179055506000600f600086815260200190815260200160002060003373ffffffffffffffffffffffffffffffffffffffff1673ffffffffffffffffffffffffffffffffffffffff16815260200190815260200160002060006101000a81548160ff021916908315150217905550611501565b6000600685815481106113e8577f4e487b7100000000000000000000000000000000000000000000000000000000600052603260045260246000fd5b90600052602060002090600d0201600a0160026101000a81548160ff02191690831515021790555060006006858154811061144c577f4e487b7100000000000000000000000000000000000000000000000000000000600052603260045260246000fd5b90600052602060002090600d0201600c018190555061147c600e6000868152602001908152602001600020613290565b611497600d6000868152602001908152602001600020613290565b6000600f600086815260200190815260200160002060003373ffffffffffffffffffffffffffffffffffffffff1673ffffffffffffffffffffffffffffffffffffffff16815260200190815260200160002060006101000a81548160ff0219169083151502179055505b50505b5050565b60606040517f08c379a000000000000000000000000000000000000000000000000000000000815260040161153c9061463e565b60405180910390fd5b600061154f611640565b905060005b81518110156115bf576000828281518110611598577f4e487b7100000000000000000000000000000000000000000000000000000000600052603260045260246000fd5b602002602001015190506115ab8161229c565b5080806115b790614b25565b915050611554565b506115fe6040518060400160405280601781526020017f446f6e6520506572666f726d696e672055706b6565702e000000000000000000815250612ef3565b505050565b60606040517f08c379a00000000000000000000000000000000000000000000000000000000081526004016116379061465e565b60405180910390fd5b606060008061164f6005612fa2565b905061165a8161329d565b60008167ffffffffffffffff81111561169c577f4e487b7100000000000000000000000000000000000000000000000000000000600052604160045260246000fd5b6040519080825280602002602001820160405280156116ca5781602001602082028036833780820191505090505b50905060005b600680549050811015611ad357600060068281548110611719577f4e487b7100000000000000000000000000000000000000000000000000000000600052603260045260246000fd5b90600052602060002090600d0201604051806101e0016040529081600082015481526020016001820160009054906101000a900473ffffffffffffffffffffffffffffffffffffffff1673ffffffffffffffffffffffffffffffffffffffff1673ffffffffffffffffffffffffffffffffffffffff1681526020016002820180546117a390614ac2565b80601f01602080910402602001604051908101604052809291908181526020018280546117cf90614ac2565b801561181c5780601f106117f15761010080835404028352916020019161181c565b820191906000526020600020905b8154815290600101906020018083116117ff57829003601f168201915b5050505050815260200160038201805461183590614ac2565b80601f016020809104026020016040519081016040528092919081815260200182805461186190614ac2565b80156118ae5780601f10611883576101008083540402835291602001916118ae565b820191906000526020600020905b81548152906001019060200180831161189157829003601f168201915b50505050508152602001600482015481526020016005820154815260200160068201548152602001600782015481526020016008820154815260200160098201548152602001600a820160009054906101000a900460ff16151515158152602001600a820160019054906101000a900460ff16151515158152602001600a820160029054906101000a900460ff16151515158152602001600b8201548152602001600c8201548152505090506119986040518060400160405280600e81526020017f70726f706f73616c20466f756e64000000000000000000000000000000000000815250612ef3565b806101400151806119ab57508061016001515b15611abf576119ee6040518060400160405280600b81526020017f676f6e6e6120646f206974000000000000000000000000000000000000000000815250612ef3565b81838681518110611a28577f4e487b7100000000000000000000000000000000000000000000000000000000600052603260045260246000fd5b602002602001018181525050611a726040518060400160405280600681526020017f6469642069740000000000000000000000000000000000000000000000000000815250612ef3565b611ab06040518060400160405280601481526020017f636f756e74657220696e6372656d656d6e746564000000000000000000000000815250612ef3565b8480611abb90614b25565b9550505b508080611acb90614b25565b9150506116d0565b50611ade815161329d565b80935050505090565b60606040517f08c379a0000000000000000000000000000000000000000000000000000000008152600401611b1b906144fe565b60405180910390fd5b60006060600091506000611b36611640565b905060005b8151811015611bef576006828281518110611b7f577f4e487b7100000000000000000000000000000000000000000000000000000000600052603260045260246000fd5b602002602001015181548110611bbe577f4e487b7100000000000000000000000000000000000000000000000000000000600052603260045260246000fd5b90600052602060002090600d020160070154421115611bdc57600193505b8080611be790614b25565b915050611b3b565b50611c2e6040518060400160405280601981526020017f446f6e6520436865636b696e6720666f722055706b6565702e00000000000000815250612ef3565b509250929050565b60606040517f08c379a0000000000000000000000000000000000000000000000000000000008152600401611c6a906145de565b60405180910390fd5b606080611c91600e6000858152602001908152602001600020612fa2565b81600081518110611ccb577f4e487b7100000000000000000000000000000000000000000000000000000000600052603260045260246000fd5b602002602001018181525050611cf2600d6000858152602001908152602001600020612fa2565b81600181518110611d2c577f4e487b7100000000000000000000000000000000000000000000000000000000600052603260045260246000fd5b60200260200101818152505080915050919050565b60006009600084815260200190815260200160002060003373ffffffffffffffffffffffffffffffffffffffff1673ffffffffffffffffffffffffffffffffffffffff1681526020019081526020016000205411611dd4576040517f08c379a0000000000000000000000000000000000000000000000000000000008152600401611dcb9061457e565b60405180910390fd5b60068281548110611e0e577f4e487b7100000000000000000000000000000000000000000000000000000000600052603260045260246000fd5b90600052602060002090600d0201600a0160029054906101000a900460ff16611e6c576040517f08c379a0000000000000000000000000000000000000000000000000000000008152600401611e639061453e565b60405180910390fd5b600f600083815260200190815260200160002060003373ffffffffffffffffffffffffffffffffffffffff1673ffffffffffffffffffffffffffffffffffffffff16815260200190815260200160002060009054906101000a900460ff1615611f0a576040517f08c379a0000000000000000000000000000000000000000000000000000000008152600401611f019061467e565b60405180910390fd5b6000811480611f195750600181145b611f58576040517f08c379a0000000000000000000000000000000000000000000000000000000008152600401611f4f9061459e565b60405180910390fd5b6001811415611f8157611f7c600d6000848152602001908152602001600020612f8c565b611fa7565b6000811415611fa657611fa5600e6000848152602001908152602001600020612f8c565b5b5b6001600f600084815260200190815260200160002060003373ffffffffffffffffffffffffffffffffffffffff1673ffffffffffffffffffffffffffffffffffffffff16815260200190815260200160002060006101000a81548160ff0219169083151502179055505050565b61201c6135ce565b60068281548110612056577f4e487b7100000000000000000000000000000000000000000000000000000000600052603260045260246000fd5b90600052602060002090600d0201604051806101e0016040529081600082015481526020016001820160009054906101000a900473ffffffffffffffffffffffffffffffffffffffff1673ffffffffffffffffffffffffffffffffffffffff1673ffffffffffffffffffffffffffffffffffffffff1681526020016002820180546120e090614ac2565b80601f016020809104026020016040519081016040528092919081815260200182805461210c90614ac2565b80156121595780601f1061212e57610100808354040283529160200191612159565b820191906000526020600020905b81548152906001019060200180831161213c57829003601f168201915b5050505050815260200160038201805461217290614ac2565b80601f016020809104026020016040519081016040528092919081815260200182805461219e90614ac2565b80156121eb5780601f106121c0576101008083540402835291602001916121eb565b820191906000526020600020905b8154815290600101906020018083116121ce57829003601f168201915b50505050508152602001600482015481526020016005820154815260200160068201548152602001600782015481526020016008820154815260200160098201548152602001600a820160009054906101000a900460ff16151515158152602001600a820160019054906101000a900460ff16151515158152602001600a820160029054906101000a900460ff16151515158152602001600b8201548152602001600c820154815250509050919050565b6000600682815481106122d8577f4e487b7100000000000000000000000000000000000000000000000000000000600052603260045260246000fd5b90600052602060002090600d0201604051806101e0016040529081600082015481526020016001820160009054906101000a900473ffffffffffffffffffffffffffffffffffffffff1673ffffffffffffffffffffffffffffffffffffffff1673ffffffffffffffffffffffffffffffffffffffff16815260200160028201805461236290614ac2565b80601f016020809104026020016040519081016040528092919081815260200182805461238e90614ac2565b80156123db5780601f106123b0576101008083540402835291602001916123db565b820191906000526020600020905b8154815290600101906020018083116123be57829003601f168201915b505050505081526020016003820180546123f490614ac2565b80601f016020809104026020016040519081016040528092919081815260200182805461242090614ac2565b801561246d5780601f106124425761010080835404028352916020019161246d565b820191906000526020600020905b81548152906001019060200180831161245057829003601f168201915b50505050508152602001600482015481526020016005820154815260200160068201548152602001600782015481526020016008820154815260200160098201548152602001600a820160009054906101000a900460ff16151515158152602001600a820160019054906101000a900460ff16151515158152602001600a820160029054906101000a900460ff16151515158152602001600b8201548152602001600c82015481525050905060004290508160e00151811015801561253457508161014001515b1561270a57600060068481548110612575577f4e487b7100000000000000000000000000000000000000000000000000000000600052603260045260246000fd5b90600052602060002090600d0201600a0160006101000a81548160ff02191690831515021790555042600684815481106125d8577f4e487b7100000000000000000000000000000000000000000000000000000000600052603260045260246000fd5b90600052602060002090600d02016009018190555061262b6040518060400160405280600f81526020017f50726f706f73616c20436c6f7365640000000000000000000000000000000000815250612ef3565b81608001518260a00151106126fa5760008261012001518361010001516126529190614993565b90506000818460a001516126669190614873565b90506000819050600081905061268d86602001516102718361268891906148a4565b613336565b6001600688815481106126c9577f4e487b7100000000000000000000000000000000000000000000000000000000600052603260045260246000fd5b90600052602060002090600d0201600a0160016101000a81548160ff02191690831515021790555050505050612705565b612704600561304c565b5b6127e6565b816101000151811015801561272157508161016001515b156127a657612730600561304c565b61273d82602001516130a8565b600060068481548110612779577f4e487b7100000000000000000000000000000000000000000000000000000000600052603260045260246000fd5b90600052602060002090600d0201600a0160016101000a81548160ff0219169083151502179055506127e5565b6127e46040518060400160405280601e81526020017f54686572652773207374696c6c2074696d6520746f20737570706f7274210000815250612ef3565b5b5b81610180015180156127fa57508161016001515b801561280b5750816101c001518110155b15612a2957600061282d600e6000868152602001908152602001600020612fa2565b9050600061284c600d6000878152602001908152602001600020612fa2565b90508181111561293a57612860600561304c565b61286d84602001516130a8565b6000600686815481106128a9577f4e487b7100000000000000000000000000000000000000000000000000000000600052603260045260246000fd5b90600052602060002090600d0201600a0160016101000a81548160ff02191690831515021790555060006006868154811061290d577f4e487b7100000000000000000000000000000000000000000000000000000000600052603260045260246000fd5b90600052602060002090600d0201600a0160026101000a81548160ff021916908315150217905550612a26565b600060068681548110612976577f4e487b7100000000000000000000000000000000000000000000000000000000600052603260045260246000fd5b90600052602060002090600d0201600a0160026101000a81548160ff0219169083151502179055506000600686815481106129da577f4e487b7100000000000000000000000000000000000000000000000000000000600052603260045260246000fd5b90600052602060002090600d0201600c0181905550612a0a600e6000878152602001908152602001600020613290565b612a25600d6000878152602001908152602001600020613290565b5b50505b505050565b60606040517f08c379a0000000000000000000000000000000000000000000000000000000008152600401612a62906145fe565b60405180910390fd5b6060600080612a7a6005612fa2565b67ffffffffffffffff811115612ab9577f4e487b7100000000000000000000000000000000000000000000000000000000600052604160045260246000fd5b604051908082528060200260200182016040528015612af257816020015b612adf6135ce565b815260200190600190039081612ad75790505b50905060005b600680549050811015612ec457600060068281548110612b41577f4e487b7100000000000000000000000000000000000000000000000000000000600052603260045260246000fd5b90600052602060002090600d0201604051806101e0016040529081600082015481526020016001820160009054906101000a900473ffffffffffffffffffffffffffffffffffffffff1673ffffffffffffffffffffffffffffffffffffffff1673ffffffffffffffffffffffffffffffffffffffff168152602001600282018054612bcb90614ac2565b80601f0160208091040260200160405190810160405280929190818152602001828054612bf790614ac2565b8015612c445780601f10612c1957610100808354040283529160200191612c44565b820191906000526020600020905b815481529060010190602001808311612c2757829003601f168201915b50505050508152602001600382018054612c5d90614ac2565b80601f0160208091040260200160405190810160405280929190818152602001828054612c8990614ac2565b8015612cd65780601f10612cab57610100808354040283529160200191612cd6565b820191906000526020600020905b815481529060010190602001808311612cb957829003601f168201915b50505050508152602001600482015481526020016005820154815260200160068201548152602001600782015481526020016008820154815260200160098201548152602001600a820160009054906101000a900460ff16151515158152602001600a820160019054906101000a900460ff16151515158152602001600a820160029054906101000a900460ff16151515158152602001600b8201548152602001600c82015481525050905080610140015180612d9557508061016001515b15612eb057604051806101e0016040528082600001518152602001826020015173ffffffffffffffffffffffffffffffffffffffff1681526020018260400151815260200182606001518152602001826080015181526020018260a0015181526020018260c0015181526020018260e00151815260200182610100015181526020018261012001518152602001826101400151151581526020018261016001511515815260200182610180015115158152602001826101a001518152602001826101c00151815250838581518110612e96577f4e487b7100000000000000000000000000000000000000000000000000000000600052603260045260246000fd5b60200260200101819052508380612eac90614b25565b9450505b508080612ebc90614b25565b915050612af8565b50809250505090565b600860009054906101000a900473ffffffffffffffffffffffffffffffffffffffff1681565b612f8981604051602401612f07919061446c565b6040516020818303038152906040527f41304fac000000000000000000000000000000000000000000000000000000007bffffffffffffffffffffffffffffffffffffffffffffffffffffffff19166020820180517bffffffffffffffffffffffffffffffffffffffffffffffffffffffff838183161783525050505061351f565b50565b6001816000016000828254019250508190555050565b600081600001549050919050565b6130488282604051602401612fc692919061448e565b6040516020818303038152906040527f9710a9d0000000000000000000000000000000000000000000000000000000007bffffffffffffffffffffffffffffffffffffffffffffffffffffffff19166020820180517bffffffffffffffffffffffffffffffffffffffffffffffffffffffff838183161783525050505061351f565b5050565b60008160000154905060008111613098576040517f08c379a000000000000000000000000000000000000000000000000000000000815260040161308f906144de565b60405180910390fd5b6001810382600001819055505050565b60008054906101000a900473ffffffffffffffffffffffffffffffffffffffff1673ffffffffffffffffffffffffffffffffffffffff166339255d5b600160009054906101000a900473ffffffffffffffffffffffffffffffffffffffff1663b4b333c660e01b600260009054906101000a900473ffffffffffffffffffffffffffffffffffffffff163086600067ffffffffffffffff811115613175577f4e487b7100000000000000000000000000000000000000000000000000000000600052604160045260246000fd5b6040519080825280601f01601f1916602001820160405280156131a75781602001600182028036833780820191505090505b506040516024016131bb94939291906143d4565b604051602081830303815290604052907bffffffffffffffffffffffffffffffffffffffffffffffffffffffff19166020820180517bffffffffffffffffffffffffffffffffffffffffffffffffffffffff83818316178352505050506040518363ffffffff1660e01b8152600401613235929190614391565b600060405180830381600087803b15801561324f57600080fd5b505af1158015613263573d6000803e3d6000fd5b505050506040513d6000823e3d601f19601f8201168201806040525081019061328c919061386e565b5050565b6000816000018190555050565b613333816040516024016132b191906146c0565b6040516020818303038152906040527ff5b1bba9000000000000000000000000000000000000000000000000000000007bffffffffffffffffffffffffffffffffffffffffffffffffffffffff19166020820180517bffffffffffffffffffffffffffffffffffffffffffffffffffffffff838183161783525050505061351f565b50565b60008054906101000a900473ffffffffffffffffffffffffffffffffffffffff1673ffffffffffffffffffffffffffffffffffffffff166339255d5b600160009054906101000a900473ffffffffffffffffffffffffffffffffffffffff166362fc305e60e01b600260009054906101000a900473ffffffffffffffffffffffffffffffffffffffff168686600067ffffffffffffffff811115613403577f4e487b7100000000000000000000000000000000000000000000000000000000600052604160045260246000fd5b6040519080825280601f01601f1916602001820160405280156134355781602001600182028036833780820191505090505b506040516024016134499493929190614420565b604051602081830303815290604052907bffffffffffffffffffffffffffffffffffffffffffffffffffffffff19166020820180517bffffffffffffffffffffffffffffffffffffffffffffffffffffffff83818316178352505050506040518363ffffffff1660e01b81526004016134c3929190614391565b600060405180830381600087803b1580156134dd57600080fd5b505af11580156134f1573d6000803e3d6000fd5b505050506040513d6000823e3d601f19601f8201168201806040525081019061351a919061386e565b505050565b60008151905060006a636f6e736f6c652e6c6f679050602083016000808483855afa5050505050565b82805461355490614ac2565b90600052602060002090601f01602090048101928261357657600085556135bd565b82601f1061358f57805160ff19168380011785556135bd565b828001600101855582156135bd579182015b828111156135bc5782518255916020019190600101906135a1565b5b5090506135ca9190613660565b5090565b604051806101e0016040528060008152602001600073ffffffffffffffffffffffffffffffffffffffff168152602001606081526020016060815260200160008152602001600081526020016000815260200160008152602001600081526020016000815260200160001515815260200160001515815260200160001515815260200160008152602001600081525090565b5b80821115613679576000816000905550600101613661565b5090565b600061369061368b84614700565b6146db565b9050828152602081018484840111156136a857600080fd5b6136b3848285614a8f565b509392505050565b60006136ce6136c984614731565b6146db565b9050828152602081018484840111156136e657600080fd5b6136f1848285614a80565b509392505050565b60008135905061370881614ffb565b92915050565b60008151905061371d81615012565b92915050565b60008135905061373281615029565b92915050565b60008083601f84011261374a57600080fd5b8235905067ffffffffffffffff81111561376357600080fd5b60208301915083600182028301111561377b57600080fd5b9250929050565b600082601f83011261379357600080fd5b81516137a384826020860161367d565b91505092915050565b6000813590506137bb81615040565b92915050565b600082601f8301126137d257600080fd5b81356137e28482602086016136bb565b91505092915050565b6000813590506137fa81615057565b92915050565b60006020828403121561381257600080fd5b60006138208482850161370e565b91505092915050565b6000806020838503121561383c57600080fd5b600083013567ffffffffffffffff81111561385657600080fd5b61386285828601613738565b92509250509250929050565b60006020828403121561388057600080fd5b600082015167ffffffffffffffff81111561389a57600080fd5b6138a684828501613782565b91505092915050565b600080600080600080600060a0888a0312156138ca57600080fd5b60006138d88a828b016137ac565b97505060206138e98a828b016136f9565b96505060406138fa8a828b01613723565b955050606088013567ffffffffffffffff81111561391757600080fd5b6139238a828b01613738565b9450945050608088013567ffffffffffffffff81111561394257600080fd5b61394e8a828b01613738565b925092505092959891949750929550565b600080600080600080600080600060c08a8c03121561397d57600080fd5b600061398b8c828d016137ac565b995050602061399c8c828d016136f9565b98505060406139ad8c828d01613723565b97505060608a013567ffffffffffffffff8111156139ca57600080fd5b6139d68c828d01613738565b965096505060808a013567ffffffffffffffff8111156139f557600080fd5b613a018c828d01613738565b945094505060a08a013567ffffffffffffffff811115613a2057600080fd5b613a2c8c828d01613738565b92509250509295985092959850929598565b600080600080600060a08688031215613a5657600080fd5b600086013567ffffffffffffffff811115613a7057600080fd5b613a7c888289016137c1565b955050602086013567ffffffffffffffff811115613a9957600080fd5b613aa5888289016137c1565b9450506040613ab6888289016137eb565b9350506060613ac7888289016137eb565b9250506080613ad8888289016137eb565b9150509295509295909350565b600060208284031215613af757600080fd5b6000613b05848285016137eb565b91505092915050565b60008060408385031215613b2157600080fd5b6000613b2f858286016137eb565b9250506020613b40858286016137eb565b9150509250929050565b600080600060608486031215613b5f57600080fd5b6000613b6d868287016137eb565b9350506020613b7e868287016137eb565b9250506040613b8f868287016136f9565b9150509250925092565b6000613ba58383613fdc565b905092915050565b6000613bb98383614270565b60208301905092915050565b613bce816149c7565b82525050565b613bdd816149c7565b82525050565b6000613bee82614782565b613bf881856147c8565b935083602082028501613c0a85614762565b8060005b85811015613c465784840389528151613c278582613b99565b9450613c32836147ae565b925060208a01995050600181019050613c0e565b50829750879550505050505092915050565b6000613c638261478d565b613c6d81856147d9565b9350613c7883614772565b8060005b83811015613ca9578151613c908882613bad565b9750613c9b836147bb565b925050600181019050613c7c565b5085935050505092915050565b613cbf816149d9565b82525050565b613cce816149d9565b82525050565b6000613cdf82614798565b613ce981856147ea565b9350613cf9818560208601614a8f565b613d0281614c2a565b840191505092915050565b613d1681614a38565b82525050565b613d2581614a5c565b82525050565b613d3481614a01565b82525050565b6000613d45826147a3565b613d4f81856147fb565b9350613d5f818560208601614a8f565b613d6881614c2a565b840191505092915050565b6000613d7e826147a3565b613d88818561480c565b9350613d98818560208601614a8f565b613da181614c2a565b840191505092915050565b6000613db960228361480c565b9150613dc482614c3b565b604082019050919050565b6000613ddc601b8361480c565b9150613de782614c8a565b602082019050919050565b6000613dff60338361480c565b9150613e0a82614cb3565b604082019050919050565b6000613e22602c8361480c565b9150613e2d82614d02565b604082019050919050565b6000613e45601d8361480c565b9150613e5082614d51565b602082019050919050565b6000613e686002836147ea565b9150613e7382614d7a565b602082019050919050565b6000613e8b60208361480c565b9150613e9682614da3565b602082019050919050565b6000613eae601e8361480c565b9150613eb982614dcc565b602082019050919050565b6000613ed160128361480c565b9150613edc82614df5565b602082019050919050565b6000613ef460088361480c565b9150613eff82614e1e565b602082019050919050565b6000613f17602f8361480c565b9150613f2282614e47565b604082019050919050565b6000613f3a602e8361480c565b9150613f4582614e96565b604082019050919050565b6000613f5d602e8361480c565b9150613f6882614ee5565b604082019050919050565b6000613f80602f8361480c565b9150613f8b82614f34565b604082019050919050565b6000613fa360318361480c565b9150613fae82614f83565b604082019050919050565b6000613fc660158361480c565b9150613fd182614fd2565b602082019050919050565b60006101e083016000830151613ff56000860182614270565b5060208301516140086020860182613bc5565b50604083015184820360408601526140208282613d3a565b9150506060830151848203606086015261403a8282613d3a565b915050608083015161404f6080860182614270565b5060a083015161406260a0860182614270565b5060c083015161407560c0860182614270565b5060e083015161408860e0860182614270565b5061010083015161409d610100860182614270565b506101208301516140b2610120860182614270565b506101408301516140c7610140860182613cb6565b506101608301516140dc610160860182613cb6565b506101808301516140f1610180860182613cb6565b506101a08301516141066101a0860182614270565b506101c083015161411b6101c0860182614270565b508091505092915050565b60006101e08301600083015161413f6000860182614270565b5060208301516141526020860182613bc5565b506040830151848203604086015261416a8282613d3a565b915050606083015184820360608601526141848282613d3a565b91505060808301516141996080860182614270565b5060a08301516141ac60a0860182614270565b5060c08301516141bf60c0860182614270565b5060e08301516141d260e0860182614270565b506101008301516141e7610100860182614270565b506101208301516141fc610120860182614270565b50610140830151614211610140860182613cb6565b50610160830151614226610160860182613cb6565b5061018083015161423b610180860182613cb6565b506101a08301516142506101a0860182614270565b506101c08301516142656101c0860182614270565b508091505092915050565b61427981614a2e565b82525050565b61428881614a2e565b82525050565b60006020820190506142a36000830184613bd4565b92915050565b60006060820190506142be6000830186613bd4565b6142cb6020830185613bd4565b6142d8604083018461427f565b949350505050565b600060208201905081810360008301526142fa8184613be3565b905092915050565b6000602082019050818103600083015261431c8184613c58565b905092915050565b60006020820190506143396000830184613cc5565b92915050565b60006040820190506143546000830185613cc5565b81810360208301526143668184613cd4565b90509392505050565b600060208201905081810360008301526143898184613cd4565b905092915050565b60006060820190506143a66000830185613d0d565b81810360208301526143b88184613cd4565b905081810360408301526143cb81613e5b565b90509392505050565b60006080820190506143e96000830187613d1c565b6143f66020830186613bd4565b6144036040830185613bd4565b81810360608301526144158184613cd4565b905095945050505050565b60006080820190506144356000830187613d1c565b6144426020830186613bd4565b61444f6040830185613d2b565b81810360608301526144618184613cd4565b905095945050505050565b600060208201905081810360008301526144868184613d73565b905092915050565b600060408201905081810360008301526144a88185613d73565b90506144b7602083018461427f565b9392505050565b600060208201905081810360008301526144d781613dac565b9050919050565b600060208201905081810360008301526144f781613dcf565b9050919050565b6000602082019050818103600083015261451781613df2565b9050919050565b6000602082019050818103600083015261453781613e15565b9050919050565b6000602082019050818103600083015261455781613e38565b9050919050565b6000602082019050818103600083015261457781613e7e565b9050919050565b6000602082019050818103600083015261459781613ea1565b9050919050565b600060208201905081810360008301526145b781613ec4565b9050919050565b600060208201905081810360008301526145d781613ee7565b9050919050565b600060208201905081810360008301526145f781613f0a565b9050919050565b6000602082019050818103600083015261461781613f2d565b9050919050565b6000602082019050818103600083015261463781613f50565b9050919050565b6000602082019050818103600083015261465781613f73565b9050919050565b6000602082019050818103600083015261467781613f96565b9050919050565b6000602082019050818103600083015261469781613fb9565b9050919050565b600060208201905081810360008301526146b88184614126565b905092915050565b60006020820190506146d5600083018461427f565b92915050565b60006146e56146f6565b90506146f18282614af4565b919050565b6000604051905090565b600067ffffffffffffffff82111561471b5761471a614bfb565b5b61472482614c2a565b9050602081019050919050565b600067ffffffffffffffff82111561474c5761474b614bfb565b5b61475582614c2a565b9050602081019050919050565b6000819050602082019050919050565b6000819050602082019050919050565b600081519050919050565b600081519050919050565b600081519050919050565b600081519050919050565b6000602082019050919050565b6000602082019050919050565b600082825260208201905092915050565b600082825260208201905092915050565b600082825260208201905092915050565b600082825260208201905092915050565b600082825260208201905092915050565b600061482882614a2e565b915061483383614a2e565b9250827fffffffffffffffffffffffffffffffffffffffffffffffffffffffffffffffff0382111561486857614867614b6e565b5b828201905092915050565b600061487e82614a2e565b915061488983614a2e565b92508261489957614898614b9d565b5b828204905092915050565b60006148af82614a01565b91506148ba83614a01565b9250826b7fffffffffffffffffffffff04821160008413600084131616156148e5576148e4614b6e565b5b817fffffffffffffffffffffffffffffffffffffffff800000000000000000000000058312600084126000841316161561492257614921614b6e565b5b827fffffffffffffffffffffffffffffffffffffffff800000000000000000000000058212600084136000841216161561495f5761495e614b6e565b5b826b7fffffffffffffffffffffff058212600084126000841216161561498857614987614b6e565b5b828202905092915050565b600061499e82614a2e565b91506149a983614a2e565b9250828210156149bc576149bb614b6e565b5b828203905092915050565b60006149d282614a0e565b9050919050565b60008115159050919050565b6000819050919050565b60006149fa826149c7565b9050919050565b600081600b0b9050919050565b600073ffffffffffffffffffffffffffffffffffffffff82169050919050565b6000819050919050565b6000614a4382614a4a565b9050919050565b6000614a5582614a0e565b9050919050565b6000614a6782614a6e565b9050919050565b6000614a7982614a0e565b9050919050565b82818337600083830152505050565b60005b83811015614aad578082015181840152602081019050614a92565b83811115614abc576000848401525b50505050565b60006002820490506001821680614ada57607f821691505b60208210811415614aee57614aed614bcc565b5b50919050565b614afd82614c2a565b810181811067ffffffffffffffff82111715614b1c57614b1b614bfb565b5b80604052505050565b6000614b3082614a2e565b91507fffffffffffffffffffffffffffffffffffffffffffffffffffffffffffffffff821415614b6357614b62614b6e565b5b600182019050919050565b7f4e487b7100000000000000000000000000000000000000000000000000000000600052601160045260246000fd5b7f4e487b7100000000000000000000000000000000000000000000000000000000600052601260045260246000fd5b7f4e487b7100000000000000000000000000000000000000000000000000000000600052602260045260246000fd5b7f4e487b7100000000000000000000000000000000000000000000000000000000600052604160045260246000fd5b6000601f19601f8301169050919050565b7f4120766f74652068617320616c7265616479206265656e20696e69746961746560008201527f6421000000000000000000000000000000000000000000000000000000000000602082015250565b7f436f756e7465723a2064656372656d656e74206f766572666c6f770000000000600082015250565b7f556e737570706f727465642063616c6c6261636b202d20204265666f7265204160008201527f677265656d656e74205465726d696e6174656400000000000000000000000000602082015250565b7f546869732063616d706169676e206973206e6f206c6f6e67657220636f6c6c6560008201527f6374696e672066756e6473210000000000000000000000000000000000000000602082015250565b7f54686572652069736e2774206120766f7465207269676874206e6f772e000000600082015250565b7f3078000000000000000000000000000000000000000000000000000000000000600082015250565b7f46756e647320617265207374696c6c206265696e6720636f6c6c65637465642e600082015250565b7f596f75206469646e277420636f6e7472696275746520746f20746869732e0000600082015250565b7f5468617420646f65736e277420776f726b2e0000000000000000000000000000600082015250565b7f504159204d4f4152000000000000000000000000000000000000000000000000600082015250565b7f556e737570706f727465642063616c6c6261636b202d204265666f726520416760008201527f7265656d656e7420757064617465640000000000000000000000000000000000602082015250565b7f556e737570706f727465642063616c6c6261636b202d2041667465722041677260008201527f65656d656e742043726561746564000000000000000000000000000000000000602082015250565b7f556e737570706f727465642063616c6c6261636b202d2041667465722041677260008201527f65656d656e742055706461746564000000000000000000000000000000000000602082015250565b7f556e737570706f727465642063616c6c6261636b202d204265666f726520416760008201527f7265656d656e7420437265617465640000000000000000000000000000000000602082015250565b7f556e737570706f727465642063616c6c6261636b202d2041667465722041677260008201527f65656d656e74205465726d696e61746564000000000000000000000000000000602082015250565b7f596f7527766520616c726561647920766f746564210000000000000000000000600082015250565b615004816149c7565b811461500f57600080fd5b50565b61501b816149d9565b811461502657600080fd5b50565b615032816149e5565b811461503d57600080fd5b50565b615049816149ef565b811461505457600080fd5b50565b61506081614a2e565b811461506b57600080fd5b5056fe4e6577204261636b657220416464656421204e6f7720746865726520617265202573204261636b6572732ea2646970667358221220cc042e66dc1ecd84bc33a6993586a23834ba41afffa8dec8f1a653a830d2514864736f6c63430008040033",
  "linkReferences": {},
  "deployedLinkReferences": {}
}